{
  "contractName": "TrafficReport",
  "abi": [
    {
      "inputs": [],
      "stateMutability": "nonpayable",
      "type": "constructor"
    },
    {
      "anonymous": false,
      "inputs": [
        {
          "indexed": false,
          "internalType": "uint256",
          "name": "reportId",
          "type": "uint256"
        },
        {
          "indexed": false,
          "internalType": "address",
          "name": "reporter",
          "type": "address"
        },
        {
          "indexed": false,
          "internalType": "string",
          "name": "location",
          "type": "string"
        },
        {
          "indexed": false,
          "internalType": "string",
          "name": "congestionLevel",
          "type": "string"
        }
      ],
      "name": "NewReport",
      "type": "event"
    },
    {
      "anonymous": false,
      "inputs": [
        {
          "indexed": false,
          "internalType": "uint256",
          "name": "reportId",
          "type": "uint256"
        },
        {
          "indexed": false,
          "internalType": "bool",
          "name": "verified",
          "type": "bool"
        }
      ],
      "name": "ReportVerified",
      "type": "event"
    },
    {
      "inputs": [],
      "name": "admin",
      "outputs": [
        {
          "internalType": "address",
          "name": "",
          "type": "address"
        }
      ],
      "stateMutability": "view",
      "type": "function",
      "constant": true
    },
    {
      "inputs": [],
      "name": "reportCount",
      "outputs": [
        {
          "internalType": "uint256",
          "name": "",
          "type": "uint256"
        }
      ],
      "stateMutability": "view",
      "type": "function",
      "constant": true
    },
    {
      "inputs": [
        {
          "internalType": "uint256",
          "name": "",
          "type": "uint256"
        }
      ],
      "name": "reports",
      "outputs": [
        {
          "internalType": "address",
          "name": "reporter",
          "type": "address"
        },
        {
          "internalType": "string",
          "name": "location",
          "type": "string"
        },
        {
          "internalType": "string",
          "name": "congestionLevel",
          "type": "string"
        },
        {
          "internalType": "uint256",
          "name": "timestamp",
          "type": "uint256"
        },
        {
          "internalType": "bool",
          "name": "verified",
          "type": "bool"
        }
      ],
      "stateMutability": "view",
      "type": "function",
      "constant": true
    },
    {
      "inputs": [
        {
          "internalType": "string",
          "name": "_location",
          "type": "string"
        },
        {
          "internalType": "string",
          "name": "_congestionLevel",
          "type": "string"
        }
      ],
      "name": "submitReport",
      "outputs": [],
      "stateMutability": "nonpayable",
      "type": "function"
    },
    {
      "inputs": [
        {
          "internalType": "uint256",
          "name": "_reportId",
          "type": "uint256"
        }
      ],
      "name": "verifyReport",
      "outputs": [],
      "stateMutability": "nonpayable",
      "type": "function"
    },
    {
      "inputs": [
        {
          "internalType": "uint256",
          "name": "_reportId",
          "type": "uint256"
        }
      ],
      "name": "getReport",
      "outputs": [
        {
          "internalType": "string",
          "name": "",
          "type": "string"
        },
        {
          "internalType": "string",
          "name": "",
          "type": "string"
        },
        {
          "internalType": "bool",
          "name": "",
          "type": "bool"
        }
      ],
      "stateMutability": "view",
      "type": "function",
      "constant": true
    }
  ],
  "bytecode": "0x60806040525f600155348015610013575f80fd5b503360025f6101000a81548173ffffffffffffffffffffffffffffffffffffffff021916908373ffffffffffffffffffffffffffffffffffffffff160217905550610f5c806100615f395ff3fe608060405234801561000f575f80fd5b5060043610610060575f3560e01c806309208a7514610064578063185c6f84146100805780634e7f9b191461009e578063c942adf7146100d0578063d2acceda14610104578063f851a44014610120575b5f80fd5b61007e6004803603810190610079919061070e565b61013e565b005b610088610285565b6040516100959190610748565b60405180910390f35b6100b860048036038101906100b3919061070e565b61028b565b6040516100c793929190610805565b60405180910390f35b6100ea60048036038101906100e5919061070e565b6103f6565b6040516100fb959493929190610887565b60405180910390f35b61011e60048036038101906101199190610a12565b61055e565b005b6101286106a5565b6040516101359190610a88565b60405180910390f35b60025f9054906101000a900473ffffffffffffffffffffffffffffffffffffffff1673ffffffffffffffffffffffffffffffffffffffff163373ffffffffffffffffffffffffffffffffffffffff16146101cd576040517f08c379a00000000000000000000000000000000000000000000000000000000081526004016101c490610aeb565b60405180910390fd5b5f811180156101de57506001548111155b61021d576040517f08c379a000000000000000000000000000000000000000000000000000000000815260040161021490610b53565b60405180910390fd5b60015f808381526020019081526020015f206004015f6101000a81548160ff0219169083151502179055507f313ba33e9f5780afb37fddee347c94f1c4b0f787bb974fa985c7139e24e84f8881600160405161027a929190610b71565b60405180910390a150565b60015481565b6060805f805f8581526020019081526020015f206001015f808681526020019081526020015f206002015f808781526020019081526020015f206004015f9054906101000a900460ff168280546102e190610bc5565b80601f016020809104026020016040519081016040528092919081815260200182805461030d90610bc5565b80156103585780601f1061032f57610100808354040283529160200191610358565b820191905f5260205f20905b81548152906001019060200180831161033b57829003601f168201915b5050505050925081805461036b90610bc5565b80601f016020809104026020016040519081016040528092919081815260200182805461039790610bc5565b80156103e25780601f106103b9576101008083540402835291602001916103e2565b820191905f5260205f20905b8154815290600101906020018083116103c557829003601f168201915b505050505091509250925092509193909250565b5f602052805f5260405f205f91509050805f015f9054906101000a900473ffffffffffffffffffffffffffffffffffffffff169080600101805461043990610bc5565b80601f016020809104026020016040519081016040528092919081815260200182805461046590610bc5565b80156104b05780601f10610487576101008083540402835291602001916104b0565b820191905f5260205f20905b81548152906001019060200180831161049357829003601f168201915b5050505050908060020180546104c590610bc5565b80601f01602080910402602001604051908101604052809291908181526020018280546104f190610bc5565b801561053c5780601f106105135761010080835404028352916020019161053c565b820191905f5260205f20905b81548152906001019060200180831161051f57829003601f168201915b505050505090806003015490806004015f9054906101000a900460ff16905085565b60015f81548092919061057090610c22565b91905055506040518060a001604052803373ffffffffffffffffffffffffffffffffffffffff1681526020018381526020018281526020014281526020015f15158152505f8060015481526020019081526020015f205f820151815f015f6101000a81548173ffffffffffffffffffffffffffffffffffffffff021916908373ffffffffffffffffffffffffffffffffffffffff160217905550602082015181600101908161061f9190610e06565b5060408201518160020190816106359190610e06565b50606082015181600301556080820151816004015f6101000a81548160ff0219169083151502179055509050507f2f7fce0706a606f61ae7c565ea07baeb1b82e27e2aeb0166ce1ae3c2831c1cfc6001543384846040516106999493929190610ed5565b60405180910390a15050565b60025f9054906101000a900473ffffffffffffffffffffffffffffffffffffffff1681565b5f604051905090565b5f80fd5b5f80fd5b5f819050919050565b6106ed816106db565b81146106f7575f80fd5b50565b5f81359050610708816106e4565b92915050565b5f60208284031215610723576107226106d3565b5b5f610730848285016106fa565b91505092915050565b610742816106db565b82525050565b5f60208201905061075b5f830184610739565b92915050565b5f81519050919050565b5f82825260208201905092915050565b5f5b8381101561079857808201518184015260208101905061077d565b5f8484015250505050565b5f601f19601f8301169050919050565b5f6107bd82610761565b6107c7818561076b565b93506107d781856020860161077b565b6107e0816107a3565b840191505092915050565b5f8115159050919050565b6107ff816107eb565b82525050565b5f6060820190508181035f83015261081d81866107b3565b9050818103602083015261083181856107b3565b905061084060408301846107f6565b949350505050565b5f73ffffffffffffffffffffffffffffffffffffffff82169050919050565b5f61087182610848565b9050919050565b61088181610867565b82525050565b5f60a08201905061089a5f830188610878565b81810360208301526108ac81876107b3565b905081810360408301526108c081866107b3565b90506108cf6060830185610739565b6108dc60808301846107f6565b9695505050505050565b5f80fd5b5f80fd5b7f4e487b71000000000000000000000000000000000000000000000000000000005f52604160045260245ffd5b610924826107a3565b810181811067ffffffffffffffff82111715610943576109426108ee565b5b80604052505050565b5f6109556106ca565b9050610961828261091b565b919050565b5f67ffffffffffffffff8211156109805761097f6108ee565b5b610989826107a3565b9050602081019050919050565b828183375f83830152505050565b5f6109b66109b184610966565b61094c565b9050828152602081018484840111156109d2576109d16108ea565b5b6109dd848285610996565b509392505050565b5f82601f8301126109f9576109f86108e6565b5b8135610a098482602086016109a4565b91505092915050565b5f8060408385031215610a2857610a276106d3565b5b5f83013567ffffffffffffffff811115610a4557610a446106d7565b5b610a51858286016109e5565b925050602083013567ffffffffffffffff811115610a7257610a716106d7565b5b610a7e858286016109e5565b9150509250929050565b5f602082019050610a9b5f830184610878565b92915050565b7f4f6e6c792061646d696e2063616e20766572696679207265706f7274730000005f82015250565b5f610ad5601d8361076b565b9150610ae082610aa1565b602082019050919050565b5f6020820190508181035f830152610b0281610ac9565b9050919050565b7f496e76616c6964207265706f72742049440000000000000000000000000000005f82015250565b5f610b3d60118361076b565b9150610b4882610b09565b602082019050919050565b5f6020820190508181035f830152610b6a81610b31565b9050919050565b5f604082019050610b845f830185610739565b610b9160208301846107f6565b9392505050565b7f4e487b71000000000000000000000000000000000000000000000000000000005f52602260045260245ffd5b5f6002820490506001821680610bdc57607f821691505b602082108103610bef57610bee610b98565b5b50919050565b7f4e487b71000000000000000000000000000000000000000000000000000000005f52601160045260245ffd5b5f610c2c826106db565b91507fffffffffffffffffffffffffffffffffffffffffffffffffffffffffffffffff8203610c5e57610c5d610bf5565b5b600182019050919050565b5f819050815f5260205f209050919050565b5f6020601f8301049050919050565b5f82821b905092915050565b5f60088302610cc57fffffffffffffffffffffffffffffffffffffffffffffffffffffffffffffffff82610c8a565b610ccf8683610c8a565b95508019841693508086168417925050509392505050565b5f819050919050565b5f610d0a610d05610d00846106db565b610ce7565b6106db565b9050919050565b5f819050919050565b610d2383610cf0565b610d37610d2f82610d11565b848454610c96565b825550505050565b5f90565b610d4b610d3f565b610d56818484610d1a565b505050565b5b81811015610d7957610d6e5f82610d43565b600181019050610d5c565b5050565b601f821115610dbe57610d8f81610c69565b610d9884610c7b565b81016020851015610da7578190505b610dbb610db385610c7b565b830182610d5b565b50505b505050565b5f82821c905092915050565b5f610dde5f1984600802610dc3565b1980831691505092915050565b5f610df68383610dcf565b9150826002028217905092915050565b610e0f82610761565b67ffffffffffffffff811115610e2857610e276108ee565b5b610e328254610bc5565b610e3d828285610d7d565b5f60209050601f831160018114610e6e575f8415610e5c578287015190505b610e668582610deb565b865550610ecd565b601f198416610e7c86610c69565b5f5b82811015610ea357848901518255600182019150602085019450602081019050610e7e565b86831015610ec05784890151610ebc601f891682610dcf565b8355505b6001600288020188555050505b505050505050565b5f608082019050610ee85f830187610739565b610ef56020830186610878565b8181036040830152610f0781856107b3565b90508181036060830152610f1b81846107b3565b90509594505050505056fea264697066735822122019cea2c4dbe7529916c700295a27b2adfafb880a0dff102e62fcdb2f9e4ca31964736f6c63430008150033",
  "immutableReferences": {},
  "source": "// SPDX-License-Identifier: MIT\npragma solidity ^0.8.0;\n\ncontract TrafficReport {\n    struct Report {\n        address reporter;\n        string location;\n        string congestionLevel;\n        uint timestamp;\n        bool verified;\n    }\n\n    mapping(uint => Report) public reports;\n    uint public reportCount = 0;\n    address public admin;\n\n    event NewReport(uint reportId, address reporter, string location, string congestionLevel);\n    event ReportVerified(uint reportId, bool verified);\n\n    constructor() {\n        admin = msg.sender; // Set contract deployer as admin\n    }\n\n    modifier onlyAdmin() {\n        require(msg.sender == admin, \"Only admin can verify reports\");\n        _;\n    }\n\n    function submitReport(string memory _location, string memory _congestionLevel) public {\n        reportCount++;\n        reports[reportCount] = Report(msg.sender, _location, _congestionLevel, block.timestamp, false);\n        emit NewReport(reportCount, msg.sender, _location, _congestionLevel);\n    }\n\n    function verifyReport(uint _reportId) public onlyAdmin {\n        require(_reportId > 0 && _reportId <= reportCount, \"Invalid report ID\");\n        reports[_reportId].verified = true;\n        emit ReportVerified(_reportId, true);\n    }\n\n    function getReport(uint _reportId) public view returns (string memory, string memory, bool) {\n        return (reports[_reportId].location, reports[_reportId].congestionLevel, reports[_reportId].verified);\n    }\n}\n",
  "sourcePath": "/Users/sajidsaleem/Desktop/STUDIES/SEMESTER 4/BLOCKCHAIN/Semester-Project/contracts/TrafficReport.sol",
  "compiler": {
    "name": "solc",
    "version": "0.8.21+commit.d9974bed.Emscripten.clang"
  },
  "schemaVersion": "3.4.16",
  "updatedAt": "2025-03-26T20:30:37.496Z",
  "networkType": "ethereum",
  "devdoc": {
    "kind": "dev",
    "methods": {},
    "version": 1
  },
  "userdoc": {
    "kind": "user",
    "methods": {},
    "version": 1
  }
}